{
  "contractName": "product",
  "abi": [
    {
      "constant": true,
      "inputs": [
        {
          "name": "",
          "type": "uint256"
        }
      ],
      "name": "ids",
      "outputs": [
        {
          "name": "",
          "type": "string"
        }
      ],
      "payable": false,
      "stateMutability": "view",
      "type": "function",
      "signature": "0xfac333ac"
    },
    {
      "constant": false,
      "inputs": [
        {
          "name": "hashid",
          "type": "string"
        },
        {
          "name": "pname",
          "type": "string"
        },
        {
          "name": "pprice",
          "type": "uint256"
        },
        {
          "name": "timestamp",
          "type": "uint256"
        }
      ],
      "name": "newProduct",
      "outputs": [
        {
          "name": "",
          "type": "string"
        }
      ],
      "payable": false,
      "stateMutability": "nonpayable",
      "type": "function",
      "signature": "0x3dd7c1b9"
    },
    {
      "constant": false,
      "inputs": [
        {
          "name": "hashid",
          "type": "string"
        },
        {
          "name": "comname",
          "type": "string"
        },
        {
          "name": "location1",
          "type": "string"
        },
        {
          "name": "review1",
          "type": "uint256"
        },
        {
          "name": "time1",
          "type": "uint256"
        }
      ],
      "name": "updateProduct",
      "outputs": [
        {
          "name": "",
          "type": "string"
        }
      ],
      "payable": false,
      "stateMutability": "nonpayable",
      "type": "function",
      "signature": "0x6d116a4f"
    },
    {
      "constant": false,
      "inputs": [
        {
          "name": "hashid",
          "type": "string"
        },
        {
          "name": "locationF",
          "type": "string"
        },
        {
          "name": "reviewF",
          "type": "uint256"
        },
        {
          "name": "timeF",
          "type": "uint256"
        }
      ],
      "name": "finalProduct",
      "outputs": [
        {
          "name": "",
          "type": "string"
        }
      ],
      "payable": false,
      "stateMutability": "nonpayable",
      "type": "function",
      "signature": "0x41d8f920"
    },
    {
      "constant": false,
      "inputs": [
        {
          "name": "hashid",
          "type": "string"
        },
        {
          "name": "chkpt",
          "type": "address"
        }
      ],
      "name": "checkProduct",
      "outputs": [],
      "payable": false,
      "stateMutability": "nonpayable",
      "type": "function",
      "signature": "0xda03853b"
    },
    {
      "constant": true,
      "inputs": [
        {
          "name": "hashid",
          "type": "string"
        }
      ],
      "name": "getProductName",
      "outputs": [
        {
          "name": "",
          "type": "string"
        }
      ],
      "payable": false,
      "stateMutability": "view",
      "type": "function",
      "signature": "0x3e865692"
    },
    {
      "constant": true,
      "inputs": [
        {
          "name": "hashid",
          "type": "string"
        }
      ],
      "name": "getPrice",
      "outputs": [
        {
          "name": "",
          "type": "uint256"
        }
      ],
      "payable": false,
      "stateMutability": "view",
      "type": "function",
      "signature": "0x524f3889"
    },
    {
      "constant": true,
      "inputs": [
        {
          "name": "hashid",
          "type": "string"
        }
      ],
      "name": "getCompanyName",
      "outputs": [
        {
          "name": "",
          "type": "string"
        }
      ],
      "payable": false,
      "stateMutability": "view",
      "type": "function",
      "signature": "0xef80ef2e"
    },
    {
      "constant": true,
      "inputs": [
        {
          "name": "hashid",
          "type": "string"
        }
      ],
      "name": "getRatings1",
      "outputs": [
        {
          "name": "",
          "type": "uint256"
        }
      ],
      "payable": false,
      "stateMutability": "view",
      "type": "function",
      "signature": "0x0e7849fa"
    },
    {
      "constant": true,
      "inputs": [
        {
          "name": "hashid",
          "type": "string"
        }
      ],
      "name": "getLocation1",
      "outputs": [
        {
          "name": "",
          "type": "string"
        }
      ],
      "payable": false,
      "stateMutability": "view",
      "type": "function",
      "signature": "0xd4f088b5"
    },
    {
      "constant": true,
      "inputs": [
        {
          "name": "hashid",
          "type": "string"
        }
      ],
      "name": "getTimeStamp",
      "outputs": [
        {
          "name": "",
          "type": "uint256"
        }
      ],
      "payable": false,
      "stateMutability": "view",
      "type": "function",
      "signature": "0xfa52c7cc"
    },
    {
      "constant": true,
      "inputs": [
        {
          "name": "hashid",
          "type": "string"
        }
      ],
      "name": "getTimeStamp1",
      "outputs": [
        {
          "name": "",
          "type": "uint256"
        }
      ],
      "payable": false,
      "stateMutability": "view",
      "type": "function",
      "signature": "0x96177afd"
    },
    {
      "constant": true,
      "inputs": [
        {
          "name": "hashid",
          "type": "string"
        }
      ],
      "name": "getTimeStampF",
      "outputs": [
        {
          "name": "",
          "type": "uint256"
        }
      ],
      "payable": false,
      "stateMutability": "view",
      "type": "function",
      "signature": "0xdc61565d"
    },
    {
      "constant": true,
      "inputs": [
        {
          "name": "hashid",
          "type": "string"
        }
      ],
      "name": "getLocationF",
      "outputs": [
        {
          "name": "",
          "type": "string"
        }
      ],
      "payable": false,
      "stateMutability": "view",
      "type": "function",
      "signature": "0xc5609020"
    },
    {
      "constant": true,
      "inputs": [
        {
          "name": "hashid",
          "type": "string"
        }
      ],
      "name": "getReviewF",
      "outputs": [
        {
          "name": "",
          "type": "uint256"
        }
      ],
      "payable": false,
      "stateMutability": "view",
      "type": "function",
      "signature": "0x354070c6"
    },
    {
      "constant": true,
      "inputs": [
        {
          "name": "hashid",
          "type": "string"
        }
      ],
      "name": "getAll",
      "outputs": [
        {
          "name": "",
          "type": "string"
        },
        {
          "name": "",
          "type": "uint256"
        },
        {
          "name": "",
          "type": "uint256"
        },
        {
          "name": "",
          "type": "string"
        },
        {
          "name": "",
          "type": "string"
        },
        {
          "name": "",
          "type": "uint256"
        },
        {
          "name": "",
          "type": "uint256"
        },
        {
          "name": "",
          "type": "string"
        },
        {
          "name": "",
          "type": "uint256"
        },
        {
          "name": "",
          "type": "uint256"
        }
      ],
      "payable": false,
      "stateMutability": "view",
      "type": "function",
      "signature": "0x04ea6bb9"
    }
  ],
  "bytecode": "0x608060405234801561001057600080fd5b506129a0806100206000396000f3fe608060405234801561001057600080fd5b506004361061011d576000357c01000000000000000000000000000000000000000000000000000000009004806396177afd116100b4578063dc61565d11610083578063dc61565d146111ab578063ef80ef2e1461127a578063fa52c7cc146113ae578063fac333ac1461147d5761011d565b806396177afd14610d99578063c560902014610e68578063d4f088b514610f9c578063da03853b146110d05761011d565b80633e865692116100f05780633e8656921461074157806341d8f92014610875578063524f388914610a545780636d116a4f14610b235761011d565b806304ea6bb9146101225780630e7849fa146103c4578063354070c6146104935780633dd7c1b914610562575b600080fd5b6101db6004803603602081101561013857600080fd5b810190808035906020019064010000000081111561015557600080fd5b82018360208201111561016757600080fd5b8035906020019184600183028401116401000000008311171561018957600080fd5b91908080601f016020809104026020016040519081016040528093929190818152602001838380828437600081840152601f19601f820116905080830192505050505050509192919290505050611524565b60405180806020018b81526020018a815260200180602001806020018981526020018881526020018060200187815260200186815260200185810385528f818151815260200191508051906020019080838360005b8381101561024b578082015181840152602081019050610230565b50505050905090810190601f1680156102785780820380516001836020036101000a031916815260200191505b5085810384528c818151815260200191508051906020019080838360005b838110156102b1578082015181840152602081019050610296565b50505050905090810190601f1680156102de5780820380516001836020036101000a031916815260200191505b5085810383528b818151815260200191508051906020019080838360005b838110156103175780820151818401526020810190506102fc565b50505050905090810190601f1680156103445780820380516001836020036101000a031916815260200191505b50858103825288818151815260200191508051906020019080838360005b8381101561037d578082015181840152602081019050610362565b50505050905090810190601f1680156103aa5780820380516001836020036101000a031916815260200191505b509e50505050505050505050505050505060405180910390f35b61047d600480360360208110156103da57600080fd5b81019080803590602001906401000000008111156103f757600080fd5b82018360208201111561040957600080fd5b8035906020019184600183028401116401000000008311171561042b57600080fd5b91908080601f016020809104026020016040519081016040528093929190818152602001838380828437600081840152601f19601f820116905080830192505050505050509192919290505050611a0e565b6040518082815260200191505060405180910390f35b61054c600480360360208110156104a957600080fd5b81019080803590602001906401000000008111156104c657600080fd5b8201836020820111156104d857600080fd5b803590602001918460018302840111640100000000831117156104fa57600080fd5b91908080601f016020809104026020016040519081016040528093929190818152602001838380828437600081840152601f19601f820116905080830192505050505050509192919290505050611a85565b6040518082815260200191505060405180910390f35b6106c66004803603608081101561057857600080fd5b810190808035906020019064010000000081111561059557600080fd5b8201836020820111156105a757600080fd5b803590602001918460018302840111640100000000831117156105c957600080fd5b91908080601f016020809104026020016040519081016040528093929190818152602001838380828437600081840152601f19601f8201169050808301925050505050505091929192908035906020019064010000000081111561062c57600080fd5b82018360208201111561063e57600080fd5b8035906020019184600183028401116401000000008311171561066057600080fd5b91908080601f016020809104026020016040519081016040528093929190818152602001838380828437600081840152601f19601f8201169050808301925050505050505091929192908035906020019092919080359060200190929190505050611afc565b6040518080602001828103825283818151815260200191508051906020019080838360005b838110156107065780820151818401526020810190506106eb565b50505050905090810190601f1680156107335780820380516001836020036101000a031916815260200191505b509250505060405180910390f35b6107fa6004803603602081101561075757600080fd5b810190808035906020019064010000000081111561077457600080fd5b82018360208201111561078657600080fd5b803590602001918460018302840111640100000000831117156107a857600080fd5b91908080601f016020809104026020016040519081016040528093929190818152602001838380828437600081840152601f19601f820116905080830192505050505050509192919290505050611ce6565b6040518080602001828103825283818151815260200191508051906020019080838360005b8381101561083a57808201518184015260208101905061081f565b50505050905090810190601f1680156108675780820380516001836020036101000a031916815260200191505b509250505060405180910390f35b6109d96004803603608081101561088b57600080fd5b81019080803590602001906401000000008111156108a857600080fd5b8201836020820111156108ba57600080fd5b803590602001918460018302840111640100000000831117156108dc57600080fd5b91908080601f016020809104026020016040519081016040528093929190818152602001838380828437600081840152601f19601f8201169050808301925050505050505091929192908035906020019064010000000081111561093f57600080fd5b82018360208201111561095157600080fd5b8035906020019184600183028401116401000000008311171561097357600080fd5b91908080601f016020809104026020016040519081016040528093929190818152602001838380828437600081840152601f19601f8201169050808301925050505050505091929192908035906020019092919080359060200190929190505050611df6565b6040518080602001828103825283818151815260200191508051906020019080838360005b83811015610a195780820151818401526020810190506109fe565b50505050905090810190601f168015610a465780820380516001836020036101000a031916815260200191505b509250505060405180910390f35b610b0d60048036036020811015610a6a57600080fd5b8101908080359060200190640100000000811115610a8757600080fd5b820183602082011115610a9957600080fd5b80359060200191846001830284011164010000000083111715610abb57600080fd5b91908080601f016020809104026020016040519081016040528093929190818152602001838380828437600081840152601f19601f820116905080830192505050505050509192919290505050611fa1565b6040518082815260200191505060405180910390f35b610d1e600480360360a0811015610b3957600080fd5b8101908080359060200190640100000000811115610b5657600080fd5b820183602082011115610b6857600080fd5b80359060200191846001830284011164010000000083111715610b8a57600080fd5b91908080601f016020809104026020016040519081016040528093929190818152602001838380828437600081840152601f19601f82011690508083019250505050505050919291929080359060200190640100000000811115610bed57600080fd5b820183602082011115610bff57600080fd5b80359060200191846001830284011164010000000083111715610c2157600080fd5b91908080601f016020809104026020016040519081016040528093929190818152602001838380828437600081840152601f19601f82011690508083019250505050505050919291929080359060200190640100000000811115610c8457600080fd5b820183602082011115610c9657600080fd5b80359060200191846001830284011164010000000083111715610cb857600080fd5b91908080601f016020809104026020016040519081016040528093929190818152602001838380828437600081840152601f19601f8201169050808301925050505050505091929192908035906020019092919080359060200190929190505050612018565b6040518080602001828103825283818151815260200191508051906020019080838360005b83811015610d5e578082015181840152602081019050610d43565b50505050905090810190601f168015610d8b5780820380516001836020036101000a031916815260200191505b509250505060405180910390f35b610e5260048036036020811015610daf57600080fd5b8101908080359060200190640100000000811115610dcc57600080fd5b820183602082011115610dde57600080fd5b80359060200191846001830284011164010000000083111715610e0057600080fd5b91908080601f016020809104026020016040519081016040528093929190818152602001838380828437600081840152601f19601f820116905080830192505050505050509192919290505050612247565b6040518082815260200191505060405180910390f35b610f2160048036036020811015610e7e57600080fd5b8101908080359060200190640100000000811115610e9b57600080fd5b820183602082011115610ead57600080fd5b80359060200191846001830284011164010000000083111715610ecf57600080fd5b91908080601f016020809104026020016040519081016040528093929190818152602001838380828437600081840152601f19601f8201169050808301925050505050505091929192905050506122be565b6040518080602001828103825283818151815260200191508051906020019080838360005b83811015610f61578082015181840152602081019050610f46565b50505050905090810190601f168015610f8e5780820380516001836020036101000a031916815260200191505b509250505060405180910390f35b61105560048036036020811015610fb257600080fd5b8101908080359060200190640100000000811115610fcf57600080fd5b820183602082011115610fe157600080fd5b8035906020019184600183028401116401000000008311171561100357600080fd5b91908080601f016020809104026020016040519081016040528093929190818152602001838380828437600081840152601f19601f8201169050808301925050505050505091929192905050506123ce565b6040518080602001828103825283818151815260200191508051906020019080838360005b8381101561109557808201518184015260208101905061107a565b50505050905090810190601f1680156110c25780820380516001836020036101000a031916815260200191505b509250505060405180910390f35b6111a9600480360360408110156110e657600080fd5b810190808035906020019064010000000081111561110357600080fd5b82018360208201111561111557600080fd5b8035906020019184600183028401116401000000008311171561113757600080fd5b91908080601f016020809104026020016040519081016040528093929190818152602001838380828437600081840152601f19601f820116905080830192505050505050509192919290803573ffffffffffffffffffffffffffffffffffffffff1690602001909291905050506124de565b005b611264600480360360208110156111c157600080fd5b81019080803590602001906401000000008111156111de57600080fd5b8201836020820111156111f057600080fd5b8035906020019184600183028401116401000000008311171561121257600080fd5b91908080601f016020809104026020016040519081016040528093929190818152602001838380828437600081840152601f19601f8201169050808301925050505050505091929192905050506125b4565b6040518082815260200191505060405180910390f35b6113336004803603602081101561129057600080fd5b81019080803590602001906401000000008111156112ad57600080fd5b8201836020820111156112bf57600080fd5b803590602001918460018302840111640100000000831117156112e157600080fd5b91908080601f016020809104026020016040519081016040528093929190818152602001838380828437600081840152601f19601f82011690508083019250505050505050919291929050505061262b565b6040518080602001828103825283818151815260200191508051906020019080838360005b83811015611373578082015181840152602081019050611358565b50505050905090810190601f1680156113a05780820380516001836020036101000a031916815260200191505b509250505060405180910390f35b611467600480360360208110156113c457600080fd5b81019080803590602001906401000000008111156113e157600080fd5b8201836020820111156113f357600080fd5b8035906020019184600183028401116401000000008311171561141557600080fd5b91908080601f016020809104026020016040519081016040528093929190818152602001838380828437600081840152601f19601f82011690508083019250505050505050919291929050505061273b565b6040518082815260200191505060405180910390f35b6114a96004803603602081101561149357600080fd5b81019080803590602001909291905050506127b2565b6040518080602001828103825283818151815260200191508051906020019080838360005b838110156114e95780820151818401526020810190506114ce565b50505050905090810190601f1680156115165780820380516001836020036101000a031916815260200191505b509250505060405180910390f35b6060600080606080600080606060008061153c61286d565b60008c6040518082805190602001908083835b602083101515611574578051825260208201915060208101905060208303925061154f565b6001836020036101000a03801982511681845116808217855250505050505090500191505090815260200160405180910390206101806040519081016040529081600082018054600181600116156101000203166002900480601f01602080910402602001604051908101604052809291908181526020018280546001816001161561010002031660029004801561164d5780601f106116225761010080835404028352916020019161164d565b820191906000526020600020905b81548152906001019060200180831161163057829003601f168201915b50505050508152602001600182015481526020016002820154815260200160038201548152602001600482018054806020026020016040519081016040528092919081815260200182805480156116f957602002820191906000526020600020905b8160009054906101000a900473ffffffffffffffffffffffffffffffffffffffff1673ffffffffffffffffffffffffffffffffffffffff16815260200190600101908083116116af575b50505050508152602001600582018054600181600116156101000203166002900480601f01602080910402602001604051908101604052809291908181526020018280546001816001161561010002031660029004801561179b5780601f106117705761010080835404028352916020019161179b565b820191906000526020600020905b81548152906001019060200180831161177e57829003601f168201915b50505050508152602001600682018054600181600116156101000203166002900480601f01602080910402602001604051908101604052809291908181526020018280546001816001161561010002031660029004801561183d5780601f106118125761010080835404028352916020019161183d565b820191906000526020600020905b81548152906001019060200180831161182057829003601f168201915b50505050508152602001600782018054600181600116156101000203166002900480601f0160208091040260200160405190810160405280929190818152602001828054600181600116156101000203166002900480156118df5780601f106118b4576101008083540402835291602001916118df565b820191906000526020600020905b8154815290600101906020018083116118c257829003601f168201915b50505050508152602001600882018054600181600116156101000203166002900480601f0160208091040260200160405190810160405280929190818152602001828054600181600116156101000203166002900480156119815780601f1061195657610100808354040283529160200191611981565b820191906000526020600020905b81548152906001019060200180831161196457829003601f168201915b5050505050815260200160098201548152602001600a8201548152602001600b8201548152505090508060a0015181610160015182602001518360c001518460e00151856101200151866040015187610100015188610140015189606001518999508696508595508292509a509a509a509a509a509a509a509a509a509a50509193959799509193959799565b600080826040518082805190602001908083835b602083101515611a475780518252602082019150602081019050602083039250611a22565b6001836020036101000a0380198251168184511680821785525050505050509050019150509081526020016040518091039020600901549050919050565b600080826040518082805190602001908083835b602083101515611abe5780518252602082019150602081019050602083039250611a99565b6001836020036101000a0380198251168184511680821785525050505050509050019150509081526020016040518091039020600a01549050919050565b60606001859080600181540180825580915050906001820390600052602060002001600090919290919091509080519060200190611b3b9291906128cf565b5050836000866040518082805190602001908083835b602083101515611b765780518252602082019150602081019050602083039250611b51565b6001836020036101000a03801982511681845116808217855250505050505090500191505090815260200160405180910390206005019080519060200190611bbf9291906128cf565b50826000866040518082805190602001908083835b602083101515611bf95780518252602082019150602081019050602083039250611bd4565b6001836020036101000a0380198251168184511680821785525050505050509050019150509081526020016040518091039020600b0181905550816000866040518082805190602001908083835b602083101515611c6c5780518252602082019150602081019050602083039250611c47565b6001836020036101000a0380198251168184511680821785525050505050509050019150509081526020016040518091039020600101819055506040805190810160405280600781526020017f73756363657373000000000000000000000000000000000000000000000000008152509050949350505050565b60606000826040518082805190602001908083835b602083101515611d205780518252602082019150602081019050602083039250611cfb565b6001836020036101000a03801982511681845116808217855250505050505090500191505090815260200160405180910390206005018054600181600116156101000203166002900480601f016020809104026020016040519081016040528092919081815260200182805460018160011615610100020316600290048015611dea5780601f10611dbf57610100808354040283529160200191611dea565b820191906000526020600020905b815481529060010190602001808311611dcd57829003601f168201915b50505050509050919050565b6060836000866040518082805190602001908083835b602083101515611e315780518252602082019150602081019050602083039250611e0c565b6001836020036101000a03801982511681845116808217855250505050505090500191505090815260200160405180910390206008019080519060200190611e7a9291906128cf565b50826000866040518082805190602001908083835b602083101515611eb45780518252602082019150602081019050602083039250611e8f565b6001836020036101000a0380198251168184511680821785525050505050509050019150509081526020016040518091039020600a0181905550816000866040518082805190602001908083835b602083101515611f275780518252602082019150602081019050602083039250611f02565b6001836020036101000a0380198251168184511680821785525050505050509050019150509081526020016040518091039020600301819055506040805190810160405280600781526020017f73756363657373000000000000000000000000000000000000000000000000008152509050949350505050565b600080826040518082805190602001908083835b602083101515611fda5780518252602082019150602081019050602083039250611fb5565b6001836020036101000a0380198251168184511680821785525050505050509050019150509081526020016040518091039020600b01549050919050565b6060846000876040518082805190602001908083835b602083101515612053578051825260208201915060208101905060208303925061202e565b6001836020036101000a0380198251168184511680821785525050505050509050019150509081526020016040518091039020600601908051906020019061209c9291906128cf565b50836000876040518082805190602001908083835b6020831015156120d657805182526020820191506020810190506020830392506120b1565b6001836020036101000a0380198251168184511680821785525050505050509050019150509081526020016040518091039020600701908051906020019061211f9291906128cf565b50826000876040518082805190602001908083835b6020831015156121595780518252602082019150602081019050602083039250612134565b6001836020036101000a038019825116818451168082178552505050505050905001915050908152602001604051809103902060090181905550816000876040518082805190602001908083835b6020831015156121cc57805182526020820191506020810190506020830392506121a7565b6001836020036101000a0380198251168184511680821785525050505050509050019150509081526020016040518091039020600201819055506040805190810160405280600781526020017f7375636365737300000000000000000000000000000000000000000000000000815250905095945050505050565b600080826040518082805190602001908083835b602083101515612280578051825260208201915060208101905060208303925061225b565b6001836020036101000a0380198251168184511680821785525050505050509050019150509081526020016040518091039020600201549050919050565b60606000826040518082805190602001908083835b6020831015156122f857805182526020820191506020810190506020830392506122d3565b6001836020036101000a03801982511681845116808217855250505050505090500191505090815260200160405180910390206008018054600181600116156101000203166002900480601f0160208091040260200160405190810160405280929190818152602001828054600181600116156101000203166002900480156123c25780601f10612397576101008083540402835291602001916123c2565b820191906000526020600020905b8154815290600101906020018083116123a557829003601f168201915b50505050509050919050565b60606000826040518082805190602001908083835b60208310151561240857805182526020820191506020810190506020830392506123e3565b6001836020036101000a03801982511681845116808217855250505050505090500191505090815260200160405180910390206007018054600181600116156101000203166002900480601f0160208091040260200160405190810160405280929190818152602001828054600181600116156101000203166002900480156124d25780601f106124a7576101008083540402835291602001916124d2565b820191906000526020600020905b8154815290600101906020018083116124b557829003601f168201915b50505050509050919050565b6000826040518082805190602001908083835b60208310151561251657805182526020820191506020810190506020830392506124f1565b6001836020036101000a03801982511681845116808217855250505050505090500191505090815260200160405180910390206004018190806001815401808255809150509060018203906000526020600020016000909192909190916101000a81548173ffffffffffffffffffffffffffffffffffffffff021916908373ffffffffffffffffffffffffffffffffffffffff160217905550505050565b600080826040518082805190602001908083835b6020831015156125ed57805182526020820191506020810190506020830392506125c8565b6001836020036101000a0380198251168184511680821785525050505050509050019150509081526020016040518091039020600301549050919050565b60606000826040518082805190602001908083835b6020831015156126655780518252602082019150602081019050602083039250612640565b6001836020036101000a03801982511681845116808217855250505050505090500191505090815260200160405180910390206006018054600181600116156101000203166002900480601f01602080910402602001604051908101604052809291908181526020018280546001816001161561010002031660029004801561272f5780601f106127045761010080835404028352916020019161272f565b820191906000526020600020905b81548152906001019060200180831161271257829003601f168201915b50505050509050919050565b600080826040518082805190602001908083835b602083101515612774578051825260208201915060208101905060208303925061274f565b6001836020036101000a0380198251168184511680821785525050505050509050019150509081526020016040518091039020600101549050919050565b6001818154811015156127c157fe5b906000526020600020016000915090508054600181600116156101000203166002900480601f0160208091040260200160405190810160405280929190818152602001828054600181600116156101000203166002900480156128655780601f1061283a57610100808354040283529160200191612865565b820191906000526020600020905b81548152906001019060200180831161284857829003601f168201915b505050505081565b610180604051908101604052806060815260200160008152602001600081526020016000815260200160608152602001606081526020016060815260200160608152602001606081526020016000815260200160008152602001600081525090565b828054600181600116156101000203166002900490600052602060002090601f016020900481019282601f1061291057805160ff191683800117855561293e565b8280016001018555821561293e579182015b8281111561293d578251825591602001919060010190612922565b5b50905061294b919061294f565b5090565b61297191905b8082111561296d576000816000905550600101612955565b5090565b9056fea165627a7a72305820eab709f3123277c62b33b0acd2ad00690ed6331ad16627066920b0659129c7470029",
  "source": "pragma solidity >=0.4.25 <0.6.0;\n\ncontract product {\n\tstruct Product {\n\t\t// address genesis;\n\t\tstring id;\n\t\tuint time;\n\t\tuint time1;\n\t\tuint timeF;\n\t\taddress[] checkpoints;\n\t\tstring name;\n\t\tstring comname;\n\t\tstring location1;\n\t\tstring locationF;\n\t\tuint review1;\n\t\tuint reviewF;\n\t\tuint price;\n\t}\n\n\tmapping(string => Product) private products;\n\tstring[] public ids;\n\n    function newProduct(string memory hashid, string memory pname, uint pprice, uint timestamp) public returns (string memory){\n        // require(!isPresent(docHash), \"Document already present\");\n        ids.push(hashid);\n        // products[hashid].genesis = paddr;\n        products[hashid].name = pname;\n        products[hashid].price = pprice;\n        products[hashid].time = timestamp;\n        return \"success\";\n\n    }\n\n    function updateProduct(string memory hashid, string memory comname, string memory location1, uint review1, uint time1) public returns (string memory){\n        // require(!isPresent(docHash), \"Document already present\");\n        // products[hashid].genesis = paddr;\n        products[hashid].comname = comname;\n        products[hashid].location1 = location1;\n        products[hashid].review1 = review1;\n        products[hashid].time1 = time1;\n        return \"success\";\n    }\n\n\n\n    function finalProduct(string memory hashid,  string memory locationF, uint reviewF, uint timeF) public returns (string memory){\n        // require(!isPresent(docHash), \"Document already present\");\n        // products[hashid].genesis = paddr;\n        //products[hashid].comname = comname;\n        products[hashid].locationF = locationF;\n        products[hashid].reviewF = reviewF;\n        products[hashid].timeF = timeF;\n        return \"success\";\n    }\n\n\tfunction checkProduct(string memory hashid, address chkpt) public {\n        products[hashid].checkpoints.push(chkpt);\n    }\n\n\tfunction getProductName(string memory hashid) public view returns (string memory) {\n\t\treturn products[hashid].name;\n\t}\n\n\tfunction getPrice(string memory hashid) public view returns (uint) {\n\t\treturn products[hashid].price;\n\t}\n\n\tfunction getCompanyName(string memory hashid) public view returns (string memory) {\n\t\treturn products[hashid].comname;\n\t}\n\n\tfunction getRatings1(string memory hashid) public view returns (uint) {\n\t\treturn products[hashid].review1;\n\t}\n\n\tfunction getLocation1(string memory hashid) public view returns (string memory) {\n\t\treturn products[hashid].location1;\n\t}\n\n\tfunction getTimeStamp(string memory hashid) public view returns (uint) {\n\t\treturn products[hashid].time;\n\t}\n\n\tfunction getTimeStamp1(string memory hashid) public view returns (uint) {\n\t\treturn products[hashid].time1;\n\t}\n\n\tfunction getTimeStampF(string memory hashid) public view returns (uint) {\n\t\treturn products[hashid].timeF;\n\t}\n\n\tfunction getLocationF(string memory hashid) public view returns (string memory) {\n\t\treturn products[hashid].locationF;\n\t}\n\n\tfunction getReviewF(string memory hashid) public view returns (uint) {\n\t\treturn products[hashid].reviewF;\n\t}\n\n\tfunction getAll(string memory hashid) public view returns (\n\t\t\t\t\t\t\t\t\t\t\t\t\t\t\t\tstring memory,\n\t\t\t\t\t\t\t\t\t\t\t\t\t\t\t\tuint,\n\t\t\t\t\t\t\t\t\t\t\t\t\t\t\t\tuint, \n\t\t\t\t\t\t\t\t\t\t\t\t\t\t\t\tstring memory, \n\t\t\t\t\t\t\t\t\t\t\t\t\t\t\t\tstring memory,\n\t\t\t\t\t\t\t\t\t\t\t\t\t\t\t\tuint,\n\t\t\t\t\t\t\t\t\t\t\t\t\t\t\t\tuint,\n\t\t\t\t\t\t\t\t\t\t\t\t\t\t\t\tstring memory,\n\t\t\t\t\t\t\t\t\t\t\t\t\t\t\t\tuint,\n\t\t\t\t\t\t\t\t\t\t\t\t\t\t\t\tuint\n\t\t\t\t\t\t\t\t\t\t\t\t\t\t\t\t\t) \n\t{\n\t\tProduct memory prd = products[hashid];\n\t\treturn (\n\t\t\t\tprd.name,\n\t\t\t\tprd.price,\n\t\t\t\tprd.time,\n\t\t\t\tprd.comname,\n\t\t\t\tprd.location1,\n\t\t\t\tprd.review1,\n\t\t\t\tprd.time1,\n\t\t\t\tprd.locationF,\n\t\t\t\tprd.reviewF,\n\t\t\t\tprd.timeF\n\t\t\t);\n\t}\n\n}",
  "sourcePath": "/Users/anandsinha/INC/SCM/contracts/product.sol",
  "compiler": {
    "name": "solc",
    "version": "0.5.2+commit.1df8f40c.Emscripten.clang"
  },
  "schemaVersion": "3.0.3",
  "updatedAt": "2019-06-22T07:51:18.090Z",
  "devdoc": {
    "methods": {}
  },
  "userdoc": {
    "methods": {}
  }
}